{
  "_format": "hh-sol-artifact-1",
  "contractName": "BuyMeACoffee",
  "sourceName": "contracts/BuyMeACoffee.sol",
  "abi": [
    {
      "inputs": [],
      "stateMutability": "nonpayable",
      "type": "constructor"
    },
    {
      "anonymous": false,
      "inputs": [
        {
          "indexed": true,
          "internalType": "address",
          "name": "from",
          "type": "address"
        },
        {
          "indexed": false,
          "internalType": "uint256",
          "name": "timestamp",
          "type": "uint256"
        },
        {
          "indexed": false,
          "internalType": "string",
          "name": "name",
          "type": "string"
        },
        {
          "indexed": false,
          "internalType": "string",
          "name": "message",
          "type": "string"
        }
      ],
      "name": "NewMemo",
      "type": "event"
    },
    {
      "inputs": [
        {
          "internalType": "string",
          "name": "_name",
          "type": "string"
        },
        {
          "internalType": "string",
          "name": "_message",
          "type": "string"
        }
      ],
      "name": "buyCoffee",
      "outputs": [],
      "stateMutability": "payable",
      "type": "function"
    },
    {
      "inputs": [],
      "name": "getMemos",
      "outputs": [
        {
          "components": [
            {
              "internalType": "address",
              "name": "from",
              "type": "address"
            },
            {
              "internalType": "uint256",
              "name": "timestamp",
              "type": "uint256"
            },
            {
              "internalType": "string",
              "name": "name",
              "type": "string"
            },
            {
              "internalType": "string",
              "name": "message",
              "type": "string"
            }
          ],
          "internalType": "struct BuyMeACoffee.Memo[]",
          "name": "",
          "type": "tuple[]"
        }
      ],
      "stateMutability": "view",
      "type": "function"
    },
    {
      "inputs": [],
      "name": "withdrawTips",
      "outputs": [],
      "stateMutability": "nonpayable",
      "type": "function"
    }
  ],
  "bytecode": "0x608060405234801561001057600080fd5b50336000806101000a81548173ffffffffffffffffffffffffffffffffffffffff021916908373ffffffffffffffffffffffffffffffffffffffff160217905550610a80806100606000396000f3fe6080604052600436106100345760003560e01c8063204206e1146100395780633aaa74b214610055578063865c51721461006c575b600080fd5b610053600480360381019061004e919061056d565b610097565b005b34801561006157600080fd5b5061006a61021f565b005b34801561007857600080fd5b5061008161027f565b60405161008e919061078e565b60405180910390f35b600034116100da576040517f08c379a00000000000000000000000000000000000000000000000000000000081526004016100d1906107b0565b60405180910390fd5b600160405180608001604052803373ffffffffffffffffffffffffffffffffffffffff16815260200142815260200184815260200183815250908060018154018082558091505060019003906000526020600020906004020160009091909190915060008201518160000160006101000a81548173ffffffffffffffffffffffffffffffffffffffff021916908373ffffffffffffffffffffffffffffffffffffffff1602179055506020820151816001015560408201518160020190805190602001906101a9929190610462565b5060608201518160030190805190602001906101c6929190610462565b5050503373ffffffffffffffffffffffffffffffffffffffff167fc56140e05f516509ae28110e0f72e17558a7561630dad2647c3ae87d986e365c428484604051610213939291906107d0565b60405180910390a25050565b60008054906101000a900473ffffffffffffffffffffffffffffffffffffffff1673ffffffffffffffffffffffffffffffffffffffff166108fc479081150290604051600060405180830381858888f1935050505061027d57600080fd5b565b60606001805480602002602001604051908101604052809291908181526020016000905b8282101561045957838290600052602060002090600402016040518060800160405290816000820160009054906101000a900473ffffffffffffffffffffffffffffffffffffffff1673ffffffffffffffffffffffffffffffffffffffff1673ffffffffffffffffffffffffffffffffffffffff168152602001600182015481526020016002820180546103369061094f565b80601f01602080910402602001604051908101604052809291908181526020018280546103629061094f565b80156103af5780601f10610384576101008083540402835291602001916103af565b820191906000526020600020905b81548152906001019060200180831161039257829003601f168201915b505050505081526020016003820180546103c89061094f565b80601f01602080910402602001604051908101604052809291908181526020018280546103f49061094f565b80156104415780601f1061041657610100808354040283529160200191610441565b820191906000526020600020905b81548152906001019060200180831161042457829003601f168201915b505050505081525050815260200190600101906102a3565b50505050905090565b82805461046e9061094f565b90600052602060002090601f01602090048101928261049057600085556104d7565b82601f106104a957805160ff19168380011785556104d7565b828001600101855582156104d7579182015b828111156104d65782518255916020019190600101906104bb565b5b5090506104e491906104e8565b5090565b5b808211156105015760008160009055506001016104e9565b5090565b60006105186105138461083a565b610815565b90508281526020810184848401111561053057600080fd5b61053b84828561090d565b509392505050565b600082601f83011261055457600080fd5b8135610564848260208601610505565b91505092915050565b6000806040838503121561058057600080fd5b600083013567ffffffffffffffff81111561059a57600080fd5b6105a685828601610543565b925050602083013567ffffffffffffffff8111156105c357600080fd5b6105cf85828601610543565b9150509250929050565b60006105e58383610706565b905092915050565b6105f6816108d1565b82525050565b60006106078261087b565b610611818561089e565b9350836020820285016106238561086b565b8060005b8581101561065f578484038952815161064085826105d9565b945061064b83610891565b925060208a01995050600181019050610627565b50829750879550505050505092915050565b600061067c82610886565b61068681856108af565b935061069681856020860161091c565b61069f81610a10565b840191505092915050565b60006106b582610886565b6106bf81856108c0565b93506106cf81856020860161091c565b6106d881610a10565b840191505092915050565b60006106f0601a836108c0565b91506106fb82610a21565b602082019050919050565b600060808301600083015161071e60008601826105ed565b5060208301516107316020860182610770565b50604083015184820360408601526107498282610671565b915050606083015184820360608601526107638282610671565b9150508091505092915050565b61077981610903565b82525050565b61078881610903565b82525050565b600060208201905081810360008301526107a881846105fc565b905092915050565b600060208201905081810360008301526107c9816106e3565b9050919050565b60006060820190506107e5600083018661077f565b81810360208301526107f781856106aa565b9050818103604083015261080b81846106aa565b9050949350505050565b600061081f610830565b905061082b8282610981565b919050565b6000604051905090565b600067ffffffffffffffff821115610855576108546109e1565b5b61085e82610a10565b9050602081019050919050565b6000819050602082019050919050565b600081519050919050565b600081519050919050565b6000602082019050919050565b600082825260208201905092915050565b600082825260208201905092915050565b600082825260208201905092915050565b60006108dc826108e3565b9050919050565b600073ffffffffffffffffffffffffffffffffffffffff82169050919050565b6000819050919050565b82818337600083830152505050565b60005b8381101561093a57808201518184015260208101905061091f565b83811115610949576000848401525b50505050565b6000600282049050600182168061096757607f821691505b6020821081141561097b5761097a6109b2565b5b50919050565b61098a82610a10565b810181811067ffffffffffffffff821117156109a9576109a86109e1565b5b80604052505050565b7f4e487b7100000000000000000000000000000000000000000000000000000000600052602260045260246000fd5b7f4e487b7100000000000000000000000000000000000000000000000000000000600052604160045260246000fd5b6000601f19601f8301169050919050565b7f63616e27742062757920636f6666656520666f7220667265652100000000000060008201525056fea26469706673582212204d736444c03df55cda9ab5ff420cbbf462e6f6843a41f5ee8c6661ba2117518464736f6c63430008040033",
  "linkReferences": {},
  "deployedLinkReferences": {}
}